S01B0000547261666669635F50726F6A6563745F4657442E73726563D4
S11300000C942A000C9447000C9447000C9447006D
S11300100C9447000C9447000C9447000C94470040
S11300200C9447000C9447000C9447000C94470030
S11300300C9447000C9447000C9447000C94470020
S11300400C9447000C9447000C9447000C94470010
S11300500C94470011241FBECFE5D8E0DEBFCDBF0E
S113006010E0A0E6B0E0EEE1F7E002C005900D92EA
S1130070A838B107D9F720E0A8E8B0E001C01D9284
S1130080A838B207E1F70E94AC010C948D030C94DC
S1130090000061E082E00E947D038FE690E00E9410
S11300A0A0028EE690E00E94A0028DE690E00E94FD
S11300B0A0028CE690E00E94A0028BE690E00E94F1
S11300C0A0028AE690E00E94A00289E690E00E94E5
S11300D0EC0188E690E00E94EC0187E690E00E9443
S11300E0EC0186E690E00E94EC0185E690E00E9437
S11300F0EC0184E690E00E94EC0181E690E00E942D
S1130100AE0108950E94490089E690E00E9423020E
S1130110E12CF12C35C060E670E081E690E00E94AD
S1130120B50180916000811102C00F5F1F4F89EFFC
S113013090E00197F1F700C00000219604C0C0E0F0
S1130140D0E000E010E0C83E93E0D90724F301506A
S11301501109093F110588F484E690E00E94230206
S11301602FE986E891E0215080409040E1F700C0FB
S11301700000EE24E394F12C09C02FEFE21AF20AF6
S113018085E0E816F104DCF2E12CF12C89E690E03C
S11301900E944D02C12CD12C59C088E690E00E94E7
S11301A0770291E0E916F10421F485E690E00E94DB
S11301B07702C0E0D0E000E010E013C060E670E039
S11301C081E690E00E94B50180916000811102C037
S11301D00F5F1F4F89EF90E00197F1F700C0000017
S11301E02196C83E93E0D9074CF301501109093F09
S11301F0110548F584E690E00E9423022FE986E881
S113020091E0215080409040E1F700C00000C0E040
S1130210D0E012C088E690E00E94770285E690E084
S11302200E9477022FE986E891E0215080409040B7
S1130230E1F700C000002196CA30D1055CF3AA247E
S1130240A394B12C0AC02FEFC21AD20A85E0C816B3
S1130250D1040CF4A2CFA12CB12C88E690E00E942A
S11302604D0291E0E916F10421F021E0A216B10457
S113027021F485E690E00E944D0281E0E816F10445
S113028021F091E0A916B10421F484E690E00E94E3
S11302904D0287E690E00E94230221E0E216F10479
S11302A021F081E0A816B10421F486E690E00E94D2
S11302B02302C12CD12C34C060E670E081E690E0CA
S11302C00E94B50180916000811102C00F5F1F4F31
S11302D089EF90E00197F1F700C00000219604C077
S11302E0C0E0D0E000E010E0C83E93E0D90724F37A
S11302F001501109093F110580F486E690E00E943F
S113030023022FE382E49FE0215080409040E1F7F4
S113031000C00000C1E0D0E009C02FEFC21AD20A29
S113032085E0C816D104E4F2C0E0D0E087E690E0AE
S11303300E944D02219721F486E690E00E944D022E
S1130340EA94EF2821F0AA94AB2809F0DDCE86E6E2
S113035090E00E944D02D8CE0E948200009719F0CE
S11303600E94A002089580E00895EF92FF920F93F7
S11303701F93CF93DF931F92CDB7DEB719820097F7
S113038011F161157105F9F07B018C01BE016F5FFC
S11303907F4F0E942C03F801828181110AC0898158
S11303A0813019F4F70110820EC081E0F7018083D7
S11303B00AC0813041F48981813019F4F7018083C6
S11303C002C0F701108280E00F90DF91CF911F915E
S11303D00F91FF90EF9008950F931F93CF93DF93A6
S11303E01F92CDB7DEB7009739F18C01FC018081F3
S11303F0282F27709981987F922B282F22952F7070
S11304002770220F220F220F977C922B87FB8827BD
S113041080F9906480FB97F99983CE0101960E943C
S1130420A002F801608167FB662760F9CE0101969E
S11304300E94E60281E001C080E00F90DF91CF913D
S11304401F910F910895CF93DF931F92CDB7DEB71D
S11304500097F1F0FC012081922F97708981887FA9
S1130460892B922F92959F709770990F990F990FDE
S1130470877C892B27FB222720F9806420FB87F9BE
S1130480898361E0CE0101960E94E60281E001C009
S113049080E00F90DF91CF910895CF93DF931F9267
S11304A0CDB7DEB70097F1F0FC012081922F977051
S11304B08981887F892B922F92959F709770990FCD
S11304C0990F990F877C892B27FB222720F98064B9
S11304D020FB87F9898360E0CE0101960E94E60241
S11304E081E001C080E00F90DF91CF910895CF9318
S11304F0DF931F92CDB7DEB70097E9F0FC012081AE
S1130500922F97708981887F892B922F92959F7063
S11305109770990F990F990F877C892B27FB2227B6
S113052020F9806420FB87F98983CE0101960E941B
S1130530570381E001C080E00F90DF91CF910895CF
S11305400097F1F1FC012081277030E0243031055F
S1130550CCF540814695469546954770808186FB4B
S1130560992790F986FF03C09130B1F02DC0220F76
S1130570331FF901E858FF4F0190F081E02D2081ED
S113058081E090E002C0880F991F4A95E2F78095B8
S11305908223808381E00895220F331FF901E858F4
S11305A0FF4F0190F081E02D208181E090E002C0B6
S11305B0880F991F4A95E2F7822B808381E0089582
S11305C080E0089580E0089580E008950097F1F1B7
S11305D0FC012081277030E024303105CCF5808186
S11305E08695869586958770662319F06130C1F0EB
S11305F031C0220F331FF901E059FF4F0190F08100
S1130600E02D408121E030E0B90102C0660F771F80
S11306108A95E2F7CB0180958423808381E0089555
S1130620220F331FF901E059FF4F0190F081E02DB3
S1130630408121E030E0B90102C0660F771F8A953E
S1130640E2F7CB01842B808381E0089580E0089554
S113065080E0089580E00895009719F1611571050F
S113066011F1FC012081277030E024303105ECF4D5
S113067040814695469546954770220F331FF901F0
S1130680E058FF4F0190F081E02D808190E002C09E
S1130690959587954A95E2F78170FB01808381E007
S11306A0089580E0089580E0089580E0089500971B
S11306B001F1FC012081277030E024303105DCF4A5
S11306C040814695469546954770220F331FF901A0
S11306D0E059FF4F0190F081E02D208181E090E00E
S11306E002C0880F991F4A95E2F78227808381E030
S11306F0089580E0089580E00895843060F4E82F40
S1130700F0E0EE0FFF1FE858FF4F0190F081E02D5D
S1110710608381E0089580E00895F894FFCF9F
S113071E010001005242322212026A625A524A42C5
S113072E3B003800350032003A0037003400310007
S10B073E3900360033003000DD
S9030000FC
