:100000000C942A000C9447000C9447000C94470071
:100010000C9447000C9447000C9447000C94470044
:100020000C9447000C9447000C9447000C94470034
:100030000C9447000C9447000C9447000C94470024
:100040000C9447000C9447000C9447000C94470014
:100050000C94470011241FBECFE5D8E0DEBFCDBF12
:1000600010E0A0E6B0E0E2ECF6E002C005900D92F0
:10007000A238B107D9F720E0A2E8B0E001C01D9294
:10008000A238B207E1F70E948E010C945F030C9432
:10009000000089E690E00E94CE0188E690E00E9490
:1000A000CE0187E690E00E94CE0186E690E00E94B5
:1000B000CE0185E690E00E94CE0184E690E00E94A9
:1000C000CE0181E690E00E94900108950E944900CF
:1000D00089E690E00E940502E12CF12C34C060E634
:1000E00070E081E690E00E949701809160008111AC
:1000F00002C00F5F1F4F89EF90E00197F1F700C03A
:100100000000219604C0C0E0D0E000E010E0CA3F4B
:10011000D1052CF3015011090133110588F484E64F
:1001200090E00E9405029FE926E881E0915020407E
:100130008040E1F700C00000EE24E394F12C09C0F8
:100140009FEFE91AF90A24E1E216F104E4F2E12C46
:10015000F12C89E690E00E942F02C12CD12C59C0CD
:1001600088E690E00E94590281E0E816F10421F44B
:1001700085E690E00E945902C0E0D0E000E010E087
:1001800013C060E670E081E690E00E9497018091E4
:100190006000811102C00F5F1F4F89EF90E001974F
:1001A000F1F700C000002196C43F91E0D9074CF35D
:1001B000015011090336110548F584E690E00E94CC
:1001C00005022FE986E891E0215080409040E1F758
:1001D00000C00000C0E0D0E012C088E690E00E94BD
:1001E000590285E690E00E9459022FE986E891E0E5
:1001F000215080409040E1F700C000002196CA30B5
:10020000D1055CF3AA24A394B12C0AC02FEFC21A23
:10021000D20A8AE0C816D1040CF4A2CFA12CB12CCA
:1002200088E690E00E942F0291E0E916F10421F0A7
:1002300021E0A216B10421F485E690E00E942F028D
:1002400081E0E816F10421F091E0A916B10421F44F
:1002500084E690E00E942F0287E690E00E9405026B
:1002600021E0E216F10421F081E0A816B10421F4A6
:1002700086E690E00E940502C12CD12C33C060E6D6
:1002800070E081E690E00E9497018091600081110A
:1002900002C00F5F1F4F89EF90E00197F1F700C098
:1002A0000000219604C0C0E0D0E000E010E0CA3FAA
:1002B000D1052CF3015011090133110580F486E6B4
:1002C00090E00E9405029FE322E48FE091502040DD
:1002D0008040E1F700C00000C1E0D0E009C09FEF1E
:1002E000C91AD90A24E1C216D104ECF2C0E0D0E068
:1002F00087E690E00E942F02219721F486E690E0A5
:100300000E942F02EA94EF2821F0AA94AB2809F06A
:10031000DFCE86E690E00E942F02DACE0E946600D1
:10032000009719F00E948202089580E00895EF92EC
:10033000FF920F931F93CF93DF931F92CDB7DEB73A
:100340001982009711F161157105F9F07B018C019B
:10035000BE016F5F7F4F0E940E03F8018281811101
:100360000AC08981813019F4F70110820EC081E042
:10037000F70180830AC0813041F48981813019F40A
:10038000F701808302C0F701108280E00F90DF91B7
:10039000CF911F910F91FF90EF9008950F931F93AE
:1003A000CF93DF931F92CDB7DEB7009739F18C0161
:1003B000FC018081282F27709981987F922B282F0C
:1003C00022952F702770220F220F220F977C922BDD
:1003D00087FB882780F9906480FB97F99983CE0189
:1003E00001960E948202F801608167FB662760F92E
:1003F000CE0101960E94C80281E001C080E00F900A
:10040000DF91CF911F910F910895CF93DF931F92AA
:10041000CDB7DEB70097F1F0FC012081922F9770E5
:100420008981887F892B922F92959F709770990F61
:10043000990F990F877C892B27FB222720F980644D
:1004400020FB87F9898361E0CE0101960E94C802F2
:1004500081E001C080E00F90DF91CF910895CF93AC
:10046000DF931F92CDB7DEB70097F1F0FC0120813A
:10047000922F97708981887F892B922F92959F70F8
:100480009770990F990F990F877C892B27FB22274B
:1004900020F9806420FB87F9898360E0CE01019612
:1004A0000E94C80281E001C080E00F90DF91CF91EF
:1004B0000895CF93DF931F92CDB7DEB70097E9F091
:1004C000FC012081922F97708981887F892B922F40
:1004D00092959F709770990F990F990F877C892B30
:1004E00027FB222720F9806420FB87F98983CE012E
:1004F00001960E94390381E001C080E00F90DF91F6
:10050000CF9108950097F1F1FC012081277030E030
:1005100024303105CCF54081469546954695477087
:10052000808186FB992790F986FF03C09130B1F056
:100530002DC0220F331FF901EE58FF4F0190F081BB
:10054000E02D208181E090E002C0880F991F4A953C
:10055000E2F780958223808381E00895220F331F84
:10056000F901EE58FF4F0190F081E02D208181E0EC
:1005700090E002C0880F991F4A95E2F7822B808392
:1005800081E0089580E0089580E0089580E0089576
:100590000097F1F1FC012081277030E02430310513
:1005A000CCF580818695869586958770662319F0AF
:1005B0006130C1F031C0220F331FF901E659FF4FFE
:1005C0000190F081E02D408121E030E0B90102C0CE
:1005D000660F771F8A95E2F7CB018095842380838D
:1005E00081E00895220F331FF901E659FF4F019072
:1005F000F081E02D408121E030E0B90102C0660FBA
:10060000771F8A95E2F7CB01842B808381E00895E0
:1006100080E0089580E0089580E00895009719F142
:100620006115710511F1FC012081277030E0243043
:100630003105ECF440814695469546954770220F6A
:10064000331FF901E658FF4F0190F081E02D8081C2
:1006500090E002C0959587954A95E2F78170FB017D
:10066000808381E0089580E0089580E0089580E02F
:100670000895009701F1FC012081277030E02430BB
:100680003105DCF440814695469546954770220F2A
:10069000331FF901E659FF4F0190F081E02D2081D1
:1006A00081E090E002C0880F991F4A95E2F7822707
:1006B000808381E0089580E0089580E00895F894B3
:0206C000FFCF6A
:1006C200010001005242322212023B003800350082
:1006D20032003A003700340031003900360033006E
:0206E2003000E6
:00000001FF
